{
  "contractName": "FundingDAO",
  "abi": [
    {
      "anonymous": false,
      "inputs": [
        {
          "indexed": true,
          "internalType": "address",
          "name": "fromAddress",
          "type": "address"
        },
        {
          "indexed": false,
          "internalType": "uint256",
          "name": "amount",
          "type": "uint256"
        }
      ],
      "name": "NewMember",
      "type": "event"
    },
    {
      "anonymous": false,
      "inputs": [
        {
          "indexed": true,
          "internalType": "address",
          "name": "proposer",
          "type": "address"
        },
        {
          "indexed": false,
          "internalType": "uint256",
          "name": "amount",
          "type": "uint256"
        }
      ],
      "name": "NewProposal",
      "type": "event"
    },
    {
      "anonymous": false,
      "inputs": [
        {
          "indexed": true,
          "internalType": "address",
          "name": "stakeholder",
          "type": "address"
        },
        {
          "indexed": true,
          "internalType": "address",
          "name": "projectAddress",
          "type": "address"
        },
        {
          "indexed": false,
          "internalType": "uint256",
          "name": "amount",
          "type": "uint256"
        }
      ],
      "name": "Payment",
      "type": "event"
    },
    {
      "anonymous": false,
      "inputs": [
        {
          "indexed": true,
          "internalType": "bytes32",
          "name": "role",
          "type": "bytes32"
        },
        {
          "indexed": true,
          "internalType": "bytes32",
          "name": "previousAdminRole",
          "type": "bytes32"
        },
        {
          "indexed": true,
          "internalType": "bytes32",
          "name": "newAdminRole",
          "type": "bytes32"
        }
      ],
      "name": "RoleAdminChanged",
      "type": "event"
    },
    {
      "anonymous": false,
      "inputs": [
        {
          "indexed": true,
          "internalType": "bytes32",
          "name": "role",
          "type": "bytes32"
        },
        {
          "indexed": true,
          "internalType": "address",
          "name": "account",
          "type": "address"
        },
        {
          "indexed": true,
          "internalType": "address",
          "name": "sender",
          "type": "address"
        }
      ],
      "name": "RoleGranted",
      "type": "event"
    },
    {
      "anonymous": false,
      "inputs": [
        {
          "indexed": true,
          "internalType": "bytes32",
          "name": "role",
          "type": "bytes32"
        },
        {
          "indexed": true,
          "internalType": "address",
          "name": "account",
          "type": "address"
        },
        {
          "indexed": true,
          "internalType": "address",
          "name": "sender",
          "type": "address"
        }
      ],
      "name": "RoleRevoked",
      "type": "event"
    },
    {
      "inputs": [],
      "name": "DEFAULT_ADMIN_ROLE",
      "outputs": [
        {
          "internalType": "bytes32",
          "name": "",
          "type": "bytes32"
        }
      ],
      "stateMutability": "view",
      "type": "function"
    },
    {
      "inputs": [],
      "name": "MEMBER",
      "outputs": [
        {
          "internalType": "bytes32",
          "name": "",
          "type": "bytes32"
        }
      ],
      "stateMutability": "view",
      "type": "function"
    },
    {
      "inputs": [],
      "name": "STAKEHOLDER",
      "outputs": [
        {
          "internalType": "bytes32",
          "name": "",
          "type": "bytes32"
        }
      ],
      "stateMutability": "view",
      "type": "function"
    },
    {
      "inputs": [
        {
          "internalType": "bytes32",
          "name": "role",
          "type": "bytes32"
        }
      ],
      "name": "getRoleAdmin",
      "outputs": [
        {
          "internalType": "bytes32",
          "name": "",
          "type": "bytes32"
        }
      ],
      "stateMutability": "view",
      "type": "function"
    },
    {
      "inputs": [
        {
          "internalType": "bytes32",
          "name": "role",
          "type": "bytes32"
        },
        {
          "internalType": "address",
          "name": "account",
          "type": "address"
        }
      ],
      "name": "grantRole",
      "outputs": [],
      "stateMutability": "nonpayable",
      "type": "function"
    },
    {
      "inputs": [
        {
          "internalType": "bytes32",
          "name": "role",
          "type": "bytes32"
        },
        {
          "internalType": "address",
          "name": "account",
          "type": "address"
        }
      ],
      "name": "hasRole",
      "outputs": [
        {
          "internalType": "bool",
          "name": "",
          "type": "bool"
        }
      ],
      "stateMutability": "view",
      "type": "function"
    },
    {
      "inputs": [],
      "name": "proposalsCount",
      "outputs": [
        {
          "internalType": "uint256",
          "name": "",
          "type": "uint256"
        }
      ],
      "stateMutability": "view",
      "type": "function"
    },
    {
      "inputs": [
        {
          "internalType": "bytes32",
          "name": "role",
          "type": "bytes32"
        },
        {
          "internalType": "address",
          "name": "account",
          "type": "address"
        }
      ],
      "name": "renounceRole",
      "outputs": [],
      "stateMutability": "nonpayable",
      "type": "function"
    },
    {
      "inputs": [
        {
          "internalType": "bytes32",
          "name": "role",
          "type": "bytes32"
        },
        {
          "internalType": "address",
          "name": "account",
          "type": "address"
        }
      ],
      "name": "revokeRole",
      "outputs": [],
      "stateMutability": "nonpayable",
      "type": "function"
    },
    {
      "inputs": [
        {
          "internalType": "bytes4",
          "name": "interfaceId",
          "type": "bytes4"
        }
      ],
      "name": "supportsInterface",
      "outputs": [
        {
          "internalType": "bool",
          "name": "",
          "type": "bool"
        }
      ],
      "stateMutability": "view",
      "type": "function"
    },
    {
      "inputs": [
        {
          "internalType": "string",
          "name": "title",
          "type": "string"
        },
        {
          "internalType": "string",
          "name": "desc",
          "type": "string"
        },
        {
          "internalType": "address",
          "name": "receiverAddress",
          "type": "address"
        },
        {
          "internalType": "uint256",
          "name": "amount",
          "type": "uint256"
        },
        {
          "internalType": "string",
          "name": "imageId",
          "type": "string"
        }
      ],
      "name": "createProposal",
      "outputs": [],
      "stateMutability": "payable",
      "type": "function"
    },
    {
      "inputs": [],
      "name": "getAllProposals",
      "outputs": [
        {
          "components": [
            {
              "internalType": "uint256",
              "name": "id",
              "type": "uint256"
            },
            {
              "internalType": "uint256",
              "name": "amount",
              "type": "uint256"
            },
            {
              "internalType": "uint256",
              "name": "livePeriod",
              "type": "uint256"
            },
            {
              "internalType": "uint256",
              "name": "voteInFavor",
              "type": "uint256"
            },
            {
              "internalType": "uint256",
              "name": "voteAgainst",
              "type": "uint256"
            },
            {
              "internalType": "string",
              "name": "title",
              "type": "string"
            },
            {
              "internalType": "string",
              "name": "desc",
              "type": "string"
            },
            {
              "internalType": "bool",
              "name": "isCompleted",
              "type": "bool"
            },
            {
              "internalType": "bool",
              "name": "paid",
              "type": "bool"
            },
            {
              "internalType": "bool",
              "name": "isPaid",
              "type": "bool"
            },
            {
              "internalType": "address payable",
              "name": "receiverAddress",
              "type": "address"
            },
            {
              "internalType": "address",
              "name": "proposer",
              "type": "address"
            },
            {
              "internalType": "uint256",
              "name": "totalFundRaised",
              "type": "uint256"
            },
            {
              "components": [
                {
                  "internalType": "address",
                  "name": "payer",
                  "type": "address"
                },
                {
                  "internalType": "uint256",
                  "name": "amount",
                  "type": "uint256"
                },
                {
                  "internalType": "uint256",
                  "name": "timestamp",
                  "type": "uint256"
                }
              ],
              "internalType": "struct FundingDAO.Funding[]",
              "name": "funders",
              "type": "tuple[]"
            },
            {
              "internalType": "string",
              "name": "imageId",
              "type": "string"
            }
          ],
          "internalType": "struct FundingDAO.Proposal[]",
          "name": "",
          "type": "tuple[]"
        }
      ],
      "stateMutability": "view",
      "type": "function"
    },
    {
      "inputs": [
        {
          "internalType": "uint256",
          "name": "proposalId",
          "type": "uint256"
        }
      ],
      "name": "getProposal",
      "outputs": [
        {
          "components": [
            {
              "internalType": "uint256",
              "name": "id",
              "type": "uint256"
            },
            {
              "internalType": "uint256",
              "name": "amount",
              "type": "uint256"
            },
            {
              "internalType": "uint256",
              "name": "livePeriod",
              "type": "uint256"
            },
            {
              "internalType": "uint256",
              "name": "voteInFavor",
              "type": "uint256"
            },
            {
              "internalType": "uint256",
              "name": "voteAgainst",
              "type": "uint256"
            },
            {
              "internalType": "string",
              "name": "title",
              "type": "string"
            },
            {
              "internalType": "string",
              "name": "desc",
              "type": "string"
            },
            {
              "internalType": "bool",
              "name": "isCompleted",
              "type": "bool"
            },
            {
              "internalType": "bool",
              "name": "paid",
              "type": "bool"
            },
            {
              "internalType": "bool",
              "name": "isPaid",
              "type": "bool"
            },
            {
              "internalType": "address payable",
              "name": "receiverAddress",
              "type": "address"
            },
            {
              "internalType": "address",
              "name": "proposer",
              "type": "address"
            },
            {
              "internalType": "uint256",
              "name": "totalFundRaised",
              "type": "uint256"
            },
            {
              "components": [
                {
                  "internalType": "address",
                  "name": "payer",
                  "type": "address"
                },
                {
                  "internalType": "uint256",
                  "name": "amount",
                  "type": "uint256"
                },
                {
                  "internalType": "uint256",
                  "name": "timestamp",
                  "type": "uint256"
                }
              ],
              "internalType": "struct FundingDAO.Funding[]",
              "name": "funders",
              "type": "tuple[]"
            },
            {
              "internalType": "string",
              "name": "imageId",
              "type": "string"
            }
          ],
          "internalType": "struct FundingDAO.Proposal",
          "name": "",
          "type": "tuple"
        }
      ],
      "stateMutability": "view",
      "type": "function"
    },
    {
      "inputs": [],
      "name": "getVotes",
      "outputs": [
        {
          "internalType": "uint256[]",
          "name": "",
          "type": "uint256[]"
        }
      ],
      "stateMutability": "view",
      "type": "function"
    },
    {
      "inputs": [],
      "name": "getStakeholderBal",
      "outputs": [
        {
          "internalType": "uint256",
          "name": "",
          "type": "uint256"
        }
      ],
      "stateMutability": "view",
      "type": "function"
    },
    {
      "inputs": [],
      "name": "getMemberBal",
      "outputs": [
        {
          "internalType": "uint256",
          "name": "",
          "type": "uint256"
        }
      ],
      "stateMutability": "view",
      "type": "function"
    },
    {
      "inputs": [],
      "name": "isStakeholder",
      "outputs": [
        {
          "internalType": "bool",
          "name": "",
          "type": "bool"
        }
      ],
      "stateMutability": "view",
      "type": "function"
    },
    {
      "inputs": [],
      "name": "isMember",
      "outputs": [
        {
          "internalType": "bool",
          "name": "",
          "type": "bool"
        }
      ],
      "stateMutability": "view",
      "type": "function"
    },
    {
      "inputs": [
        {
          "internalType": "uint256",
          "name": "proposalId",
          "type": "uint256"
        },
        {
          "internalType": "bool",
          "name": "inFavour",
          "type": "bool"
        }
      ],
      "name": "vote",
      "outputs": [],
      "stateMutability": "nonpayable",
      "type": "function"
    },
    {
      "inputs": [
        {
          "internalType": "uint256",
          "name": "proposalId",
          "type": "uint256"
        },
        {
          "internalType": "uint256",
          "name": "fundAmount",
          "type": "uint256"
        }
      ],
      "name": "provideFunds",
      "outputs": [],
      "stateMutability": "payable",
      "type": "function"
    },
    {
      "inputs": [
        {
          "internalType": "uint256",
          "name": "proposalId",
          "type": "uint256"
        }
      ],
      "name": "releaseFunding",
      "outputs": [],
      "stateMutability": "payable",
      "type": "function"
    },
    {
      "inputs": [],
      "name": "createStakeholder",
      "outputs": [],
      "stateMutability": "payable",
      "type": "function"
    }
  ],
  "bytecode": "0x6080604052600060025534801561001557600080fd5b5060016000819055506138dd8061002d6000396000f3fe6080604052600436106101355760003560e01c806391d14854116100ab578063c7f758a81161006f578063c7f758a8146103ef578063c9d27afe1461042c578063cceb68f514610455578063d02982cf14610480578063d547741f146104ab578063f8d41b96146104d457610135565b806391d1485414610324578063a217fddf14610361578063a8e78b201461038c578063b3bcf752146103a8578063c02146ac146103c457610135565b8063248a9ca3116100fd578063248a9ca3146102235780632f2ff15d1461026057806336568abe146102895780636dd8cdd2146102b25780637ed3a7e7146102dd5780638bc3b92b1461030857610135565b806301ffc9a71461013a5780630a9f46ad146101775780630d2e57ee146101a25780630dc96015146101cd5780631c681a42146101f8575b600080fd5b34801561014657600080fd5b50610161600480360381019061015c91906125af565b6104de565b60405161016e91906125f7565b60405180910390f35b34801561018357600080fd5b5061018c610558565b604051610199919061262b565b60405180910390f35b3480156101ae57600080fd5b506101b761055e565b6040516101c4919061262b565b60405180910390f35b3480156101d957600080fd5b506101e261062c565b6040516101ef9190612704565b60405180910390f35b34801561020457600080fd5b5061020d610748565b60405161021a919061273f565b60405180910390f35b34801561022f57600080fd5b5061024a60048036038101906102459190612786565b61076c565b604051610257919061273f565b60405180910390f35b34801561026c57600080fd5b5061028760048036038101906102829190612811565b61078c565b005b34801561029557600080fd5b506102b060048036038101906102ab9190612811565b6107b5565b005b3480156102be57600080fd5b506102c7610838565b6040516102d4919061262b565b60405180910390f35b3480156102e957600080fd5b506102f2610906565b6040516102ff919061273f565b60405180910390f35b610322600480360381019061031d919061287d565b61092a565b005b34801561033057600080fd5b5061034b60048036038101906103469190612811565b610bb6565b60405161035891906125f7565b60405180910390f35b34801561036d57600080fd5b50610376610c21565b604051610383919061273f565b60405180910390f35b6103a660048036038101906103a19190612922565b610c28565b005b6103c260048036038101906103bd91906129fe565b610eb4565b005b3480156103d057600080fd5b506103d9611049565b6040516103e691906125f7565b60405180910390f35b3480156103fb57600080fd5b50610416600480360381019061041191906129fe565b611092565b6040516104239190612d4c565b60405180910390f35b34801561043857600080fd5b50610453600480360381019061044e9190612d9a565b611478565b005b34801561046157600080fd5b5061046a611741565b6040516104779190612ff4565b60405180910390f35b34801561048c57600080fd5b50610495611bba565b6040516104a291906125f7565b60405180910390f35b3480156104b757600080fd5b506104d260048036038101906104cd9190612811565b611c03565b005b6104dc611c2c565b005b60007f7965db0b000000000000000000000000000000000000000000000000000000007bffffffffffffffffffffffffffffffffffffffffffffffffffffffff1916827bffffffffffffffffffffffffffffffffffffffffffffffffffffffff19161480610551575061055082611ee7565b5b9050919050565b60025481565b6000604051806060016040528060248152602001613861602491396105a37fffa60083152bd11704a80cc8c7a409dad8aa74288b454a3ba0e94c0abc7cf16833610bb6565b81906105e5576040517f08c379a00000000000000000000000000000000000000000000000000000000081526004016105dc9190613060565b60405180910390fd5b50600560003373ffffffffffffffffffffffffffffffffffffffff1673ffffffffffffffffffffffffffffffffffffffff1681526020019081526020016000205491505090565b60606040518060600160405280602881526020016137bd602891396106717ff4bb84e1768dd286358a736d195a0b228621173f655a73b89bf8b191ed0ba07d33610bb6565b81906106b3576040517f08c379a00000000000000000000000000000000000000000000000000000000081526004016106aa9190613060565b60405180910390fd5b50600660003373ffffffffffffffffffffffffffffffffffffffff1673ffffffffffffffffffffffffffffffffffffffff16815260200190815260200160002080548060200260200160405190810160405280929190818152602001828054801561073d57602002820191906000526020600020905b815481526020019060010190808311610729575b505050505091505090565b7fffa60083152bd11704a80cc8c7a409dad8aa74288b454a3ba0e94c0abc7cf16881565b600060016000838152602001908152602001600020600101549050919050565b6107958261076c565b6107a6816107a1611f51565b611f59565b6107b08383611ff6565b505050565b6107bd611f51565b73ffffffffffffffffffffffffffffffffffffffff168173ffffffffffffffffffffffffffffffffffffffff161461082a576040517f08c379a0000000000000000000000000000000000000000000000000000000008152600401610821906130f4565b60405180910390fd5b61083482826120d6565b5050565b60006040518060600160405280602881526020016137bd6028913961087d7ff4bb84e1768dd286358a736d195a0b228621173f655a73b89bf8b191ed0ba07d33610bb6565b81906108bf576040517f08c379a00000000000000000000000000000000000000000000000000000000081526004016108b69190613060565b60405180910390fd5b50600460003373ffffffffffffffffffffffffffffffffffffffff1673ffffffffffffffffffffffffffffffffffffffff1681526020019081526020016000205491505090565b7ff4bb84e1768dd286358a736d195a0b228621173f655a73b89bf8b191ed0ba07d81565b6040518060600160405280602381526020016138856023913961096d7ff4bb84e1768dd286358a736d195a0b228621173f655a73b89bf8b191ed0ba07d33610bb6565b81906109af576040517f08c379a00000000000000000000000000000000000000000000000000000000081526004016109a69190613060565b60405180910390fd5b5060006003600085815260200190815260200160002090508060070160029054906101000a900460ff1615610a19576040517f08c379a0000000000000000000000000000000000000000000000000000000008152600401610a1090613160565b60405180910390fd5b8060040154816003015411610a63576040517f08c379a0000000000000000000000000000000000000000000000000000000008152600401610a5a906131f2565b60405180910390fd5b8060010154816009015410610aad576040517f08c379a0000000000000000000000000000000000000000000000000000000008152600401610aa490613160565b60405180910390fd5b82816009016000828254610ac19190613241565b9250508190555080600a0160405180606001604052803373ffffffffffffffffffffffffffffffffffffffff16815260200185815260200142815250908060018154018082558091505060019003906000526020600020906003020160009091909190915060008201518160000160006101000a81548173ffffffffffffffffffffffffffffffffffffffff021916908373ffffffffffffffffffffffffffffffffffffffff160217905550602082015181600101556040820151816002015550508060010154816009015410610bb05760018160070160006101000a81548160ff0219169083151502179055505b50505050565b60006001600084815260200190815260200160002060000160008373ffffffffffffffffffffffffffffffffffffffff1673ffffffffffffffffffffffffffffffffffffffff16815260200190815260200160002060009054906101000a900460ff16905092915050565b6000801b81565b6040518060600160405280602581526020016137e560259139610c6b7fffa60083152bd11704a80cc8c7a409dad8aa74288b454a3ba0e94c0abc7cf16833610bb6565b8190610cad576040517f08c379a0000000000000000000000000000000000000000000000000000000008152600401610ca49190613060565b60405180910390fd5b50674563918244f400003414610cf8576040517f08c379a0000000000000000000000000000000000000000000000000000000008152600401610cef90613309565b60405180910390fd5b6000600254905060006003600083815260200190815260200160002090508181600001819055508888826006019190610d32929190612402565b508a8a826005019190610d46929190612402565b50868160070160036101000a81548173ffffffffffffffffffffffffffffffffffffffff021916908373ffffffffffffffffffffffffffffffffffffffff160217905550338160080160006101000a81548173ffffffffffffffffffffffffffffffffffffffff021916908373ffffffffffffffffffffffffffffffffffffffff1602179055508581600101819055506203f48063ffffffff1642610deb9190613241565b816002018190555060008160070160026101000a81548160ff02191690831515021790555060008160070160006101000a81548160ff021916908315150217905550848482600b019190610e40929190612402565b5060026000815480929190610e5490613329565b91905055503373ffffffffffffffffffffffffffffffffffffffff167f8dfa4a39b973cacc42c5d14d9461d66fd1fda5ea696f7d2a3c44fd9d7f11d04f87604051610e9f919061262b565b60405180910390a25050505050505050505050565b6040518060600160405280602e815260200161380a602e9139610ef77ff4bb84e1768dd286358a736d195a0b228621173f655a73b89bf8b191ed0ba07d33610bb6565b8190610f39576040517f08c379a0000000000000000000000000000000000000000000000000000000008152600401610f309190613060565b60405180910390fd5b5060006003600084815260200190815260200160002090508060010154816009015411610f9b576040517f08c379a0000000000000000000000000000000000000000000000000000000008152600401610f92906133e3565b60405180910390fd5b8060070160039054906101000a900473ffffffffffffffffffffffffffffffffffffffff1673ffffffffffffffffffffffffffffffffffffffff166108fc82600901549081150290604051600060405180830381858888f19350505050158015611009573d6000803e3d6000fd5b5060018160070160026101000a81548160ff02191690831515021790555060018160070160006101000a81548160ff021916908315150217905550505050565b600080600460003373ffffffffffffffffffffffffffffffffffffffff1673ffffffffffffffffffffffffffffffffffffffff1681526020019081526020016000205411905090565b61109a612488565b60036000838152602001908152602001600020604051806101e001604052908160008201548152602001600182015481526020016002820154815260200160038201548152602001600482015481526020016005820180546110fb90613432565b80601f016020809104026020016040519081016040528092919081815260200182805461112790613432565b80156111745780601f1061114957610100808354040283529160200191611174565b820191906000526020600020905b81548152906001019060200180831161115757829003601f168201915b5050505050815260200160068201805461118d90613432565b80601f01602080910402602001604051908101604052809291908181526020018280546111b990613432565b80156112065780601f106111db57610100808354040283529160200191611206565b820191906000526020600020905b8154815290600101906020018083116111e957829003601f168201915b505050505081526020016007820160009054906101000a900460ff161515151581526020016007820160019054906101000a900460ff161515151581526020016007820160029054906101000a900460ff161515151581526020016007820160039054906101000a900473ffffffffffffffffffffffffffffffffffffffff1673ffffffffffffffffffffffffffffffffffffffff1673ffffffffffffffffffffffffffffffffffffffff1681526020016008820160009054906101000a900473ffffffffffffffffffffffffffffffffffffffff1673ffffffffffffffffffffffffffffffffffffffff1673ffffffffffffffffffffffffffffffffffffffff16815260200160098201548152602001600a8201805480602002602001604051908101604052809291908181526020016000905b828210156113d757838290600052602060002090600302016040518060600160405290816000820160009054906101000a900473ffffffffffffffffffffffffffffffffffffffff1673ffffffffffffffffffffffffffffffffffffffff1673ffffffffffffffffffffffffffffffffffffffff168152602001600182015481526020016002820154815250508152602001906001019061133b565b505050508152602001600b820180546113ef90613432565b80601f016020809104026020016040519081016040528092919081815260200182805461141b90613432565b80156114685780601f1061143d57610100808354040283529160200191611468565b820191906000526020600020905b81548152906001019060200180831161144b57829003601f168201915b5050505050815250509050919050565b604051806060016040528060298152602001613838602991396114bb7ff4bb84e1768dd286358a736d195a0b228621173f655a73b89bf8b191ed0ba07d33610bb6565b81906114fd576040517f08c379a00000000000000000000000000000000000000000000000000000000081526004016114f49190613060565b60405180910390fd5b5060006003600085815260200190815260200160002090508060070160009054906101000a900460ff1680611536575042816002015411155b156115935760018160070160006101000a81548160ff0219169083151502179055506040517f08c379a000000000000000000000000000000000000000000000000000000000815260040161158a906134d5565b60405180910390fd5b60005b600660003373ffffffffffffffffffffffffffffffffffffffff1673ffffffffffffffffffffffffffffffffffffffff1681526020019081526020016000208054905081101561169457600660003373ffffffffffffffffffffffffffffffffffffffff1673ffffffffffffffffffffffffffffffffffffffff1681526020019081526020016000208181548110611631576116306134f5565b5b9060005260206000200154826000015403611681576040517f08c379a000000000000000000000000000000000000000000000000000000000815260040161167890613570565b60405180910390fd5b808061168c90613329565b915050611596565b5082156116ba578060030160008154809291906116b090613329565b91905055506116d5565b8060040160008154809291906116cf90613329565b91905055505b600660003373ffffffffffffffffffffffffffffffffffffffff1673ffffffffffffffffffffffffffffffffffffffff16815260200190815260200160002084908060018154018082558091505060019003906000526020600020016000909190919091505550505050565b6060600060025467ffffffffffffffff81111561176157611760613590565b5b60405190808252806020026020018201604052801561179a57816020015b611787612488565b81526020019060019003908161177f5790505b50905060005b600254811015611bb25760036000828152602001908152602001600020604051806101e0016040529081600082015481526020016001820154815260200160028201548152602001600382015481526020016004820154815260200160058201805461180b90613432565b80601f016020809104026020016040519081016040528092919081815260200182805461183790613432565b80156118845780601f1061185957610100808354040283529160200191611884565b820191906000526020600020905b81548152906001019060200180831161186757829003601f168201915b5050505050815260200160068201805461189d90613432565b80601f01602080910402602001604051908101604052809291908181526020018280546118c990613432565b80156119165780601f106118eb57610100808354040283529160200191611916565b820191906000526020600020905b8154815290600101906020018083116118f957829003601f168201915b505050505081526020016007820160009054906101000a900460ff161515151581526020016007820160019054906101000a900460ff161515151581526020016007820160029054906101000a900460ff161515151581526020016007820160039054906101000a900473ffffffffffffffffffffffffffffffffffffffff1673ffffffffffffffffffffffffffffffffffffffff1673ffffffffffffffffffffffffffffffffffffffff1681526020016008820160009054906101000a900473ffffffffffffffffffffffffffffffffffffffff1673ffffffffffffffffffffffffffffffffffffffff1673ffffffffffffffffffffffffffffffffffffffff16815260200160098201548152602001600a8201805480602002602001604051908101604052809291908181526020016000905b82821015611ae757838290600052602060002090600302016040518060600160405290816000820160009054906101000a900473ffffffffffffffffffffffffffffffffffffffff1673ffffffffffffffffffffffffffffffffffffffff1673ffffffffffffffffffffffffffffffffffffffff1681526020016001820154815260200160028201548152505081526020019060010190611a4b565b505050508152602001600b82018054611aff90613432565b80601f0160208091040260200160405190810160405280929190818152602001828054611b2b90613432565b8015611b785780601f10611b4d57610100808354040283529160200191611b78565b820191906000526020600020905b815481529060010190602001808311611b5b57829003601f168201915b505050505081525050828281518110611b9457611b936134f5565b5b60200260200101819052508080611baa90613329565b9150506117a0565b508091505090565b600080600560003373ffffffffffffffffffffffffffffffffffffffff1673ffffffffffffffffffffffffffffffffffffffff1681526020019081526020016000205411905090565b611c0c8261076c565b611c1d81611c18611f51565b611f59565b611c2783836120d6565b505050565b6000349050611c5b7ff4bb84e1768dd286358a736d195a0b228621173f655a73b89bf8b191ed0ba07d33610bb6565b611e3757600081600560003373ffffffffffffffffffffffffffffffffffffffff1673ffffffffffffffffffffffffffffffffffffffff16815260200190815260200160002054611cac9190613241565b9050671bc16d674ec800008110611db057611ce77ff4bb84e1768dd286358a736d195a0b228621173f655a73b89bf8b191ed0ba07d336121b8565b611d117fffa60083152bd11704a80cc8c7a409dad8aa74288b454a3ba0e94c0abc7cf168336121b8565b80600460003373ffffffffffffffffffffffffffffffffffffffff1673ffffffffffffffffffffffffffffffffffffffff1681526020019081526020016000208190555081600560003373ffffffffffffffffffffffffffffffffffffffff1673ffffffffffffffffffffffffffffffffffffffff1681526020019081526020016000206000828254611da49190613241565b92505081905550611e31565b611dda7fffa60083152bd11704a80cc8c7a409dad8aa74288b454a3ba0e94c0abc7cf168336121b8565b81600560003373ffffffffffffffffffffffffffffffffffffffff1673ffffffffffffffffffffffffffffffffffffffff1681526020019081526020016000206000828254611e299190613241565b925050819055505b50611ee4565b80600560003373ffffffffffffffffffffffffffffffffffffffff1673ffffffffffffffffffffffffffffffffffffffff1681526020019081526020016000206000828254611e869190613241565b9250508190555080600460003373ffffffffffffffffffffffffffffffffffffffff1673ffffffffffffffffffffffffffffffffffffffff1681526020019081526020016000206000828254611edc9190613241565b925050819055505b50565b60007f01ffc9a7000000000000000000000000000000000000000000000000000000007bffffffffffffffffffffffffffffffffffffffffffffffffffffffff1916827bffffffffffffffffffffffffffffffffffffffffffffffffffffffff1916149050919050565b600033905090565b611f638282610bb6565b611ff257611f888173ffffffffffffffffffffffffffffffffffffffff1660146121c6565b611f968360001c60206121c6565b604051602001611fa7929190613693565b6040516020818303038152906040526040517f08c379a0000000000000000000000000000000000000000000000000000000008152600401611fe99190613060565b60405180910390fd5b5050565b6120008282610bb6565b6120d257600180600084815260200190815260200160002060000160008373ffffffffffffffffffffffffffffffffffffffff1673ffffffffffffffffffffffffffffffffffffffff16815260200190815260200160002060006101000a81548160ff021916908315150217905550612077611f51565b73ffffffffffffffffffffffffffffffffffffffff168173ffffffffffffffffffffffffffffffffffffffff16837f2f8788117e7eff1d82e926ec794901d17c78024a50270940304540a733656f0d60405160405180910390a45b5050565b6120e08282610bb6565b156121b45760006001600084815260200190815260200160002060000160008373ffffffffffffffffffffffffffffffffffffffff1673ffffffffffffffffffffffffffffffffffffffff16815260200190815260200160002060006101000a81548160ff021916908315150217905550612159611f51565b73ffffffffffffffffffffffffffffffffffffffff168173ffffffffffffffffffffffffffffffffffffffff16837ff6391f5c32d9c69d2a47ea670b442974b53935d1edc7fd64eb21e047a839171b60405160405180910390a45b5050565b6121c28282611ff6565b5050565b6060600060028360026121d991906136cd565b6121e39190613241565b67ffffffffffffffff8111156121fc576121fb613590565b5b6040519080825280601f01601f19166020018201604052801561222e5781602001600182028036833780820191505090505b5090507f300000000000000000000000000000000000000000000000000000000000000081600081518110612266576122656134f5565b5b60200101907effffffffffffffffffffffffffffffffffffffffffffffffffffffffffffff1916908160001a9053507f7800000000000000000000000000000000000000000000000000000000000000816001815181106122ca576122c96134f5565b5b60200101907effffffffffffffffffffffffffffffffffffffffffffffffffffffffffffff1916908160001a9053506000600184600261230a91906136cd565b6123149190613241565b90505b60018111156123b4577f3031323334353637383961626364656600000000000000000000000000000000600f861660108110612356576123556134f5565b5b1a60f81b82828151811061236d5761236c6134f5565b5b60200101907effffffffffffffffffffffffffffffffffffffffffffffffffffffffffffff1916908160001a905350600485901c9450806123ad90613727565b9050612317565b50600084146123f8576040517f08c379a00000000000000000000000000000000000000000000000000000000081526004016123ef9061379c565b60405180910390fd5b8091505092915050565b82805461240e90613432565b90600052602060002090601f0160209004810192826124305760008555612477565b82601f1061244957803560ff1916838001178555612477565b82800160010185558215612477579182015b8281111561247657823582559160200191906001019061245b565b5b5090506124849190612530565b5090565b604051806101e0016040528060008152602001600081526020016000815260200160008152602001600081526020016060815260200160608152602001600015158152602001600015158152602001600015158152602001600073ffffffffffffffffffffffffffffffffffffffff168152602001600073ffffffffffffffffffffffffffffffffffffffff1681526020016000815260200160608152602001606081525090565b5b80821115612549576000816000905550600101612531565b5090565b600080fd5b600080fd5b60007fffffffff0000000000000000000000000000000000000000000000000000000082169050919050565b61258c81612557565b811461259757600080fd5b50565b6000813590506125a981612583565b92915050565b6000602082840312156125c5576125c461254d565b5b60006125d38482850161259a565b91505092915050565b60008115159050919050565b6125f1816125dc565b82525050565b600060208201905061260c60008301846125e8565b92915050565b6000819050919050565b61262581612612565b82525050565b6000602082019050612640600083018461261c565b92915050565b600081519050919050565b600082825260208201905092915050565b6000819050602082019050919050565b61267b81612612565b82525050565b600061268d8383612672565b60208301905092915050565b6000602082019050919050565b60006126b182612646565b6126bb8185612651565b93506126c683612662565b8060005b838110156126f75781516126de8882612681565b97506126e983612699565b9250506001810190506126ca565b5085935050505092915050565b6000602082019050818103600083015261271e81846126a6565b905092915050565b6000819050919050565b61273981612726565b82525050565b60006020820190506127546000830184612730565b92915050565b61276381612726565b811461276e57600080fd5b50565b6000813590506127808161275a565b92915050565b60006020828403121561279c5761279b61254d565b5b60006127aa84828501612771565b91505092915050565b600073ffffffffffffffffffffffffffffffffffffffff82169050919050565b60006127de826127b3565b9050919050565b6127ee816127d3565b81146127f957600080fd5b50565b60008135905061280b816127e5565b92915050565b600080604083850312156128285761282761254d565b5b600061283685828601612771565b9250506020612847858286016127fc565b9150509250929050565b61285a81612612565b811461286557600080fd5b50565b60008135905061287781612851565b92915050565b600080604083850312156128945761289361254d565b5b60006128a285828601612868565b92505060206128b385828601612868565b9150509250929050565b600080fd5b600080fd5b600080fd5b60008083601f8401126128e2576128e16128bd565b5b8235905067ffffffffffffffff8111156128ff576128fe6128c2565b5b60208301915083600182028301111561291b5761291a6128c7565b5b9250929050565b60008060008060008060008060a0898b0312156129425761294161254d565b5b600089013567ffffffffffffffff8111156129605761295f612552565b5b61296c8b828c016128cc565b9850985050602089013567ffffffffffffffff81111561298f5761298e612552565b5b61299b8b828c016128cc565b965096505060406129ae8b828c016127fc565b94505060606129bf8b828c01612868565b935050608089013567ffffffffffffffff8111156129e0576129df612552565b5b6129ec8b828c016128cc565b92509250509295985092959890939650565b600060208284031215612a1457612a1361254d565b5b6000612a2284828501612868565b91505092915050565b600081519050919050565b600082825260208201905092915050565b60005b83811015612a65578082015181840152602081019050612a4a565b83811115612a74576000848401525b50505050565b6000601f19601f8301169050919050565b6000612a9682612a2b565b612aa08185612a36565b9350612ab0818560208601612a47565b612ab981612a7a565b840191505092915050565b612acd816125dc565b82525050565b6000612ade826127b3565b9050919050565b612aee81612ad3565b82525050565b612afd816127d3565b82525050565b600081519050919050565b600082825260208201905092915050565b6000819050602082019050919050565b606082016000820151612b456000850182612af4565b506020820151612b586020850182612672565b506040820151612b6b6040850182612672565b50505050565b6000612b7d8383612b2f565b60608301905092915050565b6000602082019050919050565b6000612ba182612b03565b612bab8185612b0e565b9350612bb683612b1f565b8060005b83811015612be7578151612bce8882612b71565b9750612bd983612b89565b925050600181019050612bba565b5085935050505092915050565b60006101e083016000830151612c0d6000860182612672565b506020830151612c206020860182612672565b506040830151612c336040860182612672565b506060830151612c466060860182612672565b506080830151612c596080860182612672565b5060a083015184820360a0860152612c718282612a8b565b91505060c083015184820360c0860152612c8b8282612a8b565b91505060e0830151612ca060e0860182612ac4565b50610100830151612cb5610100860182612ac4565b50610120830151612cca610120860182612ac4565b50610140830151612cdf610140860182612ae5565b50610160830151612cf4610160860182612af4565b50610180830151612d09610180860182612672565b506101a08301518482036101a0860152612d238282612b96565b9150506101c08301518482036101c0860152612d3f8282612a8b565b9150508091505092915050565b60006020820190508181036000830152612d668184612bf4565b905092915050565b612d77816125dc565b8114612d8257600080fd5b50565b600081359050612d9481612d6e565b92915050565b60008060408385031215612db157612db061254d565b5b6000612dbf85828601612868565b9250506020612dd085828601612d85565b9150509250929050565b600081519050919050565b600082825260208201905092915050565b6000819050602082019050919050565b60006101e083016000830151612e1f6000860182612672565b506020830151612e326020860182612672565b506040830151612e456040860182612672565b506060830151612e586060860182612672565b506080830151612e6b6080860182612672565b5060a083015184820360a0860152612e838282612a8b565b91505060c083015184820360c0860152612e9d8282612a8b565b91505060e0830151612eb260e0860182612ac4565b50610100830151612ec7610100860182612ac4565b50610120830151612edc610120860182612ac4565b50610140830151612ef1610140860182612ae5565b50610160830151612f06610160860182612af4565b50610180830151612f1b610180860182612672565b506101a08301518482036101a0860152612f358282612b96565b9150506101c08301518482036101c0860152612f518282612a8b565b9150508091505092915050565b6000612f6a8383612e06565b905092915050565b6000602082019050919050565b6000612f8a82612dda565b612f948185612de5565b935083602082028501612fa685612df6565b8060005b85811015612fe25784840389528151612fc38582612f5e565b9450612fce83612f72565b925060208a01995050600181019050612faa565b50829750879550505050505092915050565b6000602082019050818103600083015261300e8184612f7f565b905092915050565b600082825260208201905092915050565b600061303282612a2b565b61303c8185613016565b935061304c818560208601612a47565b61305581612a7a565b840191505092915050565b6000602082019050818103600083015261307a8184613027565b905092915050565b7f416363657373436f6e74726f6c3a2063616e206f6e6c792072656e6f756e636560008201527f20726f6c657320666f722073656c660000000000000000000000000000000000602082015250565b60006130de602f83613016565b91506130e982613082565b604082019050919050565b6000602082019050818103600083015261310d816130d1565b9050919050565b7f52657175697265642066756e6473206172652070726f76696465642e00000000600082015250565b600061314a601c83613016565b915061315582613114565b602082019050919050565b600060208201905081810360008301526131798161313d565b9050919050565b7f546869732070726f706f73616c206973206e6f742073656c656374656420666f60008201527f722066756e64696e672e00000000000000000000000000000000000000000000602082015250565b60006131dc602a83613016565b91506131e782613180565b604082019050919050565b6000602082019050818103600083015261320b816131cf565b9050919050565b7f4e487b7100000000000000000000000000000000000000000000000000000000600052601160045260246000fd5b600061324c82612612565b915061325783612612565b9250827fffffffffffffffffffffffffffffffffffffffffffffffffffffffffffffffff0382111561328c5761328b613212565b5b828201905092915050565b7f596f75206e65656420746f206164642035204d4154494320746f20637265617460008201527f6520612070726f706f73616c0000000000000000000000000000000000000000602082015250565b60006132f3602c83613016565b91506132fe82613297565b604082019050919050565b60006020820190508181036000830152613322816132e6565b9050919050565b600061333482612612565b91507fffffffffffffffffffffffffffffffffffffffffffffffffffffffffffffffff820361336657613365613212565b5b600182019050919050565b7f52657175697265642066756e647320617265206e6f74206d65742e20506c656160008201527f73652070726f76696465722066756e64732e0000000000000000000000000000602082015250565b60006133cd603283613016565b91506133d882613371565b604082019050919050565b600060208201905081810360008301526133fc816133c0565b9050919050565b7f4e487b7100000000000000000000000000000000000000000000000000000000600052602260045260246000fd5b6000600282049050600182168061344a57607f821691505b60208210810361345d5761345c613403565b5b50919050565b7f54696d6520706572696f64206f6620746869732070726f706f73616c2069732060008201527f656e6465642e0000000000000000000000000000000000000000000000000000602082015250565b60006134bf602683613016565b91506134ca82613463565b604082019050919050565b600060208201905081810360008301526134ee816134b2565b9050919050565b7f4e487b7100000000000000000000000000000000000000000000000000000000600052603260045260246000fd5b7f596f752063616e206f6e6c7920766f7465206f6e63652e000000000000000000600082015250565b600061355a601783613016565b915061356582613524565b602082019050919050565b600060208201905081810360008301526135898161354d565b9050919050565b7f4e487b7100000000000000000000000000000000000000000000000000000000600052604160045260246000fd5b600081905092915050565b7f416363657373436f6e74726f6c3a206163636f756e7420000000000000000000600082015250565b60006136006017836135bf565b915061360b826135ca565b601782019050919050565b600061362182612a2b565b61362b81856135bf565b935061363b818560208601612a47565b80840191505092915050565b7f206973206d697373696e6720726f6c6520000000000000000000000000000000600082015250565b600061367d6011836135bf565b915061368882613647565b601182019050919050565b600061369e826135f3565b91506136aa8285613616565b91506136b582613670565b91506136c18284613616565b91508190509392505050565b60006136d882612612565b91506136e383612612565b9250817fffffffffffffffffffffffffffffffffffffffffffffffffffffffffffffffff048311821515161561371c5761371b613212565b5b828202905092915050565b600061373282612612565b91506000820361374557613744613212565b5b600182039050919050565b7f537472696e67733a20686578206c656e67746820696e73756666696369656e74600082015250565b6000613786602083613016565b915061379182613750565b602082019050919050565b600060208201905081810360008301526137b581613779565b905091905056fe4f6e6c79205374616b65686f6c6465722063616e2063616c6c20746869732066756e6374696f6e2e4f6e6c79206d656d626572732063616e20637265617465206e65772070726f706f73616c2e4f6e6c79205374616b65686f6c646572732061726520616c6c6f77656420746f2072656c656173652066756e64734f6e6c79205374616b65686f6c646572732063616e20766f7465206f6e20612070726f706f73616c2e4f6e6c79204d656d626572732063616e2063616c6c20746869732066756e6374696f6e2e4f6e6c79205374616b65686f6c646572732063616e206d616b65207061796d656e7473a264697066735822122053d24b867fba62be5f93045e0d5785841e932afdd801c7c081aa929b28c9f1df64736f6c634300080d0033",
  "immutableReferences": {},
  "source": "// SPDX-License-Identifier: MIT\n\npragma solidity ^0.8.0;\n\nimport \"@openzeppelin/contracts/access/AccessControl.sol\";\nimport \"@openzeppelin/contracts/security/ReentrancyGuard.sol\";\n\ncontract FundingDAO is ReentrancyGuard, AccessControl {\n    bytes32 public constant MEMBER = keccak256(\"MEMBER\");\n    bytes32 public constant STAKEHOLDER = keccak256(\"STAKEHOLDER\");\n\n    uint32 constant votingPeriod = 3 days;\n\n    uint256 public proposalsCount = 0;\n\n    struct Proposal {\n        uint256 id;\n        uint256 amount;\n        uint256 livePeriod;\n        uint256 voteInFavor;\n        uint256 voteAgainst;\n        string title;\n        string desc;\n        bool isCompleted;\n        bool paid;\n        bool isPaid;\n        address payable receiverAddress;\n        address proposer;\n        uint256 totalFundRaised;\n        Funding[] funders;\n        string imageId;\n    }\n\n    struct Funding {\n        address payer;\n        uint256 amount;\n        uint256 timestamp;\n    }\n\n    mapping(uint256 => Proposal) private proposals;\n    mapping(address => uint256) private stakeholders;\n    mapping(address => uint256) private members;\n    mapping(address => uint256[]) private votes;\n\n    event NewMember(address indexed fromAddress, uint256 amount);\n    event NewProposal(address indexed proposer, uint256 amount);\n    event Payment(\n        address indexed stakeholder,\n        address indexed projectAddress,\n        uint256 amount\n    );\n\n    modifier onlyMember(string memory message) {\n        require(hasRole(MEMBER, msg.sender), message);\n        _;\n    }\n\n    modifier onlyStakeholder(string memory message) {\n        require(hasRole(STAKEHOLDER, msg.sender), message);\n        _;\n    }\n\n    function createProposal(\n        string calldata title,\n        string calldata desc,\n        address receiverAddress,\n        uint256 amount,\n        string calldata imageId\n    ) public payable onlyMember(\"Only members can create new proposal.\") {\n        require(\n            msg.value == 5 * 10**18,\n            \"You need to add 5 MATIC to create a proposal\"\n        );\n        uint256 proposalId = proposalsCount;\n        Proposal storage proposal = proposals[proposalId];\n        proposal.id = proposalId;\n        proposal.desc = desc;\n        proposal.title = title;\n        proposal.receiverAddress = payable(receiverAddress);\n        proposal.proposer = payable(msg.sender);\n        proposal.amount = amount;\n        proposal.livePeriod = block.timestamp + votingPeriod;\n        proposal.isPaid = false;\n        proposal.isCompleted = false;\n        proposal.imageId = imageId;\n        proposalsCount++;\n        emit NewProposal(msg.sender, amount);\n    }\n\n    function getAllProposals() public view returns (Proposal[] memory) {\n        Proposal[] memory tempProposals = new Proposal[](proposalsCount);\n        for (uint256 index = 0; index < proposalsCount; index++) {\n            tempProposals[index] = proposals[index];\n        }\n        return tempProposals;\n    }\n\n    function getProposal(uint256 proposalId)\n        public\n        view\n        returns (Proposal memory)\n    {\n        return proposals[proposalId];\n    }\n\n    function getVotes()\n        public\n        view\n        onlyStakeholder(\"Only Stakeholder can call this function.\")\n        returns (uint256[] memory)\n    {\n        return votes[msg.sender];\n    }\n\n    function getStakeholderBal()\n        public\n        view\n        onlyStakeholder(\"Only Stakeholder can call this function.\")\n        returns (uint256)\n    {\n        return stakeholders[msg.sender];\n    }\n\n    function getMemberBal()\n        public\n        view\n        onlyMember(\"Only Members can call this function.\")\n        returns (uint256)\n    {\n        return members[msg.sender];\n    }\n\n    function isStakeholder() public view returns (bool) {\n        return stakeholders[msg.sender] > 0;\n    }\n\n    function isMember() public view returns (bool) {\n        return members[msg.sender] > 0;\n    }\n\n    function vote(uint256 proposalId, bool inFavour)\n        public\n        onlyStakeholder(\"Only Stakeholders can vote on a proposal.\")\n    {\n        Proposal storage proposal = proposals[proposalId];\n\n        if (proposal.isCompleted || proposal.livePeriod <= block.timestamp) {\n            proposal.isCompleted = true;\n            revert(\"Time period of this proposal is ended.\");\n        }\n        for (uint256 i = 0; i < votes[msg.sender].length; i++) {\n            if (proposal.id == votes[msg.sender][i])\n                revert(\"You can only vote once.\");\n        }\n\n        if (inFavour) proposal.voteInFavor++;\n        else proposal.voteAgainst++;\n\n        votes[msg.sender].push(proposalId);\n    }\n\n    function provideFunds(uint256 proposalId, uint256 fundAmount)\n        public\n        payable\n        onlyStakeholder(\"Only Stakeholders can make payments\")\n    {\n        Proposal storage proposal = proposals[proposalId];\n\n        if (proposal.isPaid) revert(\"Required funds are provided.\");\n        if (proposal.voteInFavor <= proposal.voteAgainst)\n            revert(\"This proposal is not selected for funding.\");\n        if (proposal.totalFundRaised >= proposal.amount)\n            revert(\"Required funds are provided.\");\n        proposal.totalFundRaised += fundAmount;\n        proposal.funders.push(Funding(msg.sender, fundAmount, block.timestamp));\n        if (proposal.totalFundRaised >= proposal.amount) {\n            proposal.isCompleted = true;\n        }\n    }\n\n    function releaseFunding(uint256 proposalId)\n        public\n        payable\n        onlyStakeholder(\"Only Stakeholders are allowed to release funds\")\n    {\n        Proposal storage proposal = proposals[proposalId];\n\n        if (proposal.totalFundRaised <= proposal.amount) {\n            revert(\"Required funds are not met. Please provider funds.\");\n        }\n        proposal.receiverAddress.transfer(proposal.totalFundRaised);\n        proposal.isPaid = true;\n        proposal.isCompleted = true;\n    }\n\n    function createStakeholder() public payable {\n        uint256 amount = msg.value;\n        if (!hasRole(STAKEHOLDER, msg.sender)) {\n            uint256 total = members[msg.sender] + amount;\n            if (total >= 2 ether) {\n                _setupRole(STAKEHOLDER, msg.sender);\n                _setupRole(MEMBER, msg.sender);\n                stakeholders[msg.sender] = total;\n                members[msg.sender] += amount;\n            } else {\n                _setupRole(MEMBER, msg.sender);\n                members[msg.sender] += amount;\n            }\n        } else {\n            members[msg.sender] += amount;\n            stakeholders[msg.sender] += amount;\n        }\n    }\n}",
  "sourcePath": "/Users/edosophia/Documents/funding-dao/contracts/VentureDAO.sol",
  "compiler": {
    "name": "solc",
    "version": "0.8.13+commit.abaa5c0e.Emscripten.clang"
  },
  "schemaVersion": "3.4.4",
  "updatedAt": "2022-03-22T04:37:21.633Z",
  "devdoc": {
    "kind": "dev",
    "methods": {
      "getRoleAdmin(bytes32)": {
        "details": "Returns the admin role that controls `role`. See {grantRole} and {revokeRole}. To change a role's admin, use {_setRoleAdmin}."
      },
      "grantRole(bytes32,address)": {
        "details": "Grants `role` to `account`. If `account` had not been already granted `role`, emits a {RoleGranted} event. Requirements: - the caller must have ``role``'s admin role."
      },
      "hasRole(bytes32,address)": {
        "details": "Returns `true` if `account` has been granted `role`."
      },
      "renounceRole(bytes32,address)": {
        "details": "Revokes `role` from the calling account. Roles are often managed via {grantRole} and {revokeRole}: this function's purpose is to provide a mechanism for accounts to lose their privileges if they are compromised (such as when a trusted device is misplaced). If the calling account had been revoked `role`, emits a {RoleRevoked} event. Requirements: - the caller must be `account`."
      },
      "revokeRole(bytes32,address)": {
        "details": "Revokes `role` from `account`. If `account` had been granted `role`, emits a {RoleRevoked} event. Requirements: - the caller must have ``role``'s admin role."
      },
      "supportsInterface(bytes4)": {
        "details": "See {IERC165-supportsInterface}."
      }
    },
    "version": 1
  },
  "userdoc": {
    "kind": "user",
    "methods": {},
    "version": 1
  }
}